{
  "_format": "hh-sol-artifact-1",
  "contractName": "AntEggToken",
  "sourceName": "contracts/AntEggToken.sol",
  "abi": [
    {
      "constant": true,
      "inputs": [],
      "name": "name",
      "outputs": [
        {
          "name": "",
          "type": "string"
        }
      ],
      "payable": false,
      "stateMutability": "view",
      "type": "function"
    },
    {
      "constant": false,
      "inputs": [
        {
          "name": "spender",
          "type": "address"
        },
        {
          "name": "amount",
          "type": "uint256"
        }
      ],
      "name": "approve",
      "outputs": [
        {
          "name": "",
          "type": "bool"
        }
      ],
      "payable": false,
      "stateMutability": "nonpayable",
      "type": "function"
    },
    {
      "constant": true,
      "inputs": [],
      "name": "totalSupply",
      "outputs": [
        {
          "name": "",
          "type": "uint256"
        }
      ],
      "payable": false,
      "stateMutability": "view",
      "type": "function"
    },
    {
      "constant": false,
      "inputs": [
        {
          "name": "sender",
          "type": "address"
        },
        {
          "name": "recipient",
          "type": "address"
        },
        {
          "name": "amount",
          "type": "uint256"
        }
      ],
      "name": "transferFrom",
      "outputs": [
        {
          "name": "",
          "type": "bool"
        }
      ],
      "payable": false,
      "stateMutability": "nonpayable",
      "type": "function"
    },
    {
      "constant": true,
      "inputs": [],
      "name": "decimals",
      "outputs": [
        {
          "name": "",
          "type": "uint8"
        }
      ],
      "payable": false,
      "stateMutability": "view",
      "type": "function"
    },
    {
      "constant": false,
      "inputs": [
        {
          "name": "spender",
          "type": "address"
        },
        {
          "name": "addedValue",
          "type": "uint256"
        }
      ],
      "name": "increaseAllowance",
      "outputs": [
        {
          "name": "",
          "type": "bool"
        }
      ],
      "payable": false,
      "stateMutability": "nonpayable",
      "type": "function"
    },
    {
      "constant": false,
      "inputs": [
        {
          "name": "account",
          "type": "address"
        },
        {
          "name": "amount",
          "type": "uint256"
        }
      ],
      "name": "mint",
      "outputs": [
        {
          "name": "",
          "type": "bool"
        }
      ],
      "payable": false,
      "stateMutability": "nonpayable",
      "type": "function"
    },
    {
      "constant": true,
      "inputs": [
        {
          "name": "account",
          "type": "address"
        }
      ],
      "name": "balanceOf",
      "outputs": [
        {
          "name": "",
          "type": "uint256"
        }
      ],
      "payable": false,
      "stateMutability": "view",
      "type": "function"
    },
    {
      "constant": true,
      "inputs": [],
      "name": "symbol",
      "outputs": [
        {
          "name": "",
          "type": "string"
        }
      ],
      "payable": false,
      "stateMutability": "view",
      "type": "function"
    },
    {
      "constant": false,
      "inputs": [
        {
          "name": "account",
          "type": "address"
        }
      ],
      "name": "addMinter",
      "outputs": [],
      "payable": false,
      "stateMutability": "nonpayable",
      "type": "function"
    },
    {
      "constant": false,
      "inputs": [],
      "name": "renounceMinter",
      "outputs": [],
      "payable": false,
      "stateMutability": "nonpayable",
      "type": "function"
    },
    {
      "constant": false,
      "inputs": [
        {
          "name": "_numberOfEggs",
          "type": "uint256"
        }
      ],
      "name": "BuyAntEggs",
      "outputs": [],
      "payable": true,
      "stateMutability": "payable",
      "type": "function"
    },
    {
      "constant": false,
      "inputs": [
        {
          "name": "spender",
          "type": "address"
        },
        {
          "name": "subtractedValue",
          "type": "uint256"
        }
      ],
      "name": "decreaseAllowance",
      "outputs": [
        {
          "name": "",
          "type": "bool"
        }
      ],
      "payable": false,
      "stateMutability": "nonpayable",
      "type": "function"
    },
    {
      "constant": false,
      "inputs": [
        {
          "name": "recipient",
          "type": "address"
        },
        {
          "name": "amount",
          "type": "uint256"
        }
      ],
      "name": "transfer",
      "outputs": [
        {
          "name": "",
          "type": "bool"
        }
      ],
      "payable": false,
      "stateMutability": "nonpayable",
      "type": "function"
    },
    {
      "constant": true,
      "inputs": [
        {
          "name": "account",
          "type": "address"
        }
      ],
      "name": "isMinter",
      "outputs": [
        {
          "name": "",
          "type": "bool"
        }
      ],
      "payable": false,
      "stateMutability": "view",
      "type": "function"
    },
    {
      "constant": true,
      "inputs": [
        {
          "name": "owner",
          "type": "address"
        },
        {
          "name": "spender",
          "type": "address"
        }
      ],
      "name": "allowance",
      "outputs": [
        {
          "name": "",
          "type": "uint256"
        }
      ],
      "payable": false,
      "stateMutability": "view",
      "type": "function"
    },
    {
      "inputs": [],
      "payable": false,
      "stateMutability": "nonpayable",
      "type": "constructor"
    },
    {
      "anonymous": false,
      "inputs": [
        {
          "indexed": true,
          "name": "account",
          "type": "address"
        }
      ],
      "name": "MinterAdded",
      "type": "event"
    },
    {
      "anonymous": false,
      "inputs": [
        {
          "indexed": true,
          "name": "account",
          "type": "address"
        }
      ],
      "name": "MinterRemoved",
      "type": "event"
    },
    {
      "anonymous": false,
      "inputs": [
        {
          "indexed": true,
          "name": "from",
          "type": "address"
        },
        {
          "indexed": true,
          "name": "to",
          "type": "address"
        },
        {
          "indexed": false,
          "name": "value",
          "type": "uint256"
        }
      ],
      "name": "Transfer",
      "type": "event"
    },
    {
      "anonymous": false,
      "inputs": [
        {
          "indexed": true,
          "name": "owner",
          "type": "address"
        },
        {
          "indexed": true,
          "name": "spender",
          "type": "address"
        },
        {
          "indexed": false,
          "name": "value",
          "type": "uint256"
        }
      ],
      "name": "Approval",
      "type": "event"
    }
  ],
  "bytecode": "0x60806040523480156200001157600080fd5b506040518060400160405280600b81526020017f416e74456767546f6b656e0000000000000000000000000000000000000000008152506040518060400160405280600381526020017f4145540000000000000000000000000000000000000000000000000000000000815250600082600390805190602001906200009892919062000327565b508160049080519060200190620000b192919062000327565b5080600560006101000a81548160ff021916908360ff160217905550505050620000f0620000e4620000f660201b60201c565b620000fe60201b60201c565b620003d6565b600033905090565b620001198160066200015f60201b620016f41790919060201c565b8073ffffffffffffffffffffffffffffffffffffffff167f6ae172837ea30b801fbfcdd4108aa1d5bf8ff775444fd70256b44e6bf3dfc3f660405160405180910390a250565b6200017182826200024560201b60201c565b151515620001e7576040517f08c379a000000000000000000000000000000000000000000000000000000000815260040180806020018281038252601f8152602001807f526f6c65733a206163636f756e7420616c72656164792068617320726f6c650081525060200191505060405180910390fd5b60018260000160008373ffffffffffffffffffffffffffffffffffffffff1673ffffffffffffffffffffffffffffffffffffffff16815260200190815260200160002060006101000a81548160ff0219169083151502179055505050565b60008073ffffffffffffffffffffffffffffffffffffffff168273ffffffffffffffffffffffffffffffffffffffff1614151515620002d0576040517f08c379a000000000000000000000000000000000000000000000000000000000815260040180806020018281038252602281526020018062001e556022913960400191505060405180910390fd5b8260000160008373ffffffffffffffffffffffffffffffffffffffff1673ffffffffffffffffffffffffffffffffffffffff16815260200190815260200160002060009054906101000a900460ff16905092915050565b828054600181600116156101000203166002900490600052602060002090601f016020900481019282601f106200036a57805160ff19168380011785556200039b565b828001600101855582156200039b579182015b828111156200039a5782518255916020019190600101906200037d565b5b509050620003aa9190620003ae565b5090565b620003d391905b80821115620003cf576000816000905550600101620003b5565b5090565b90565b611a6f80620003e66000396000f3fe6080604052600436106100f35760003560e01c806395d89b411161008a578063a457c2d711610059578063a457c2d71461055b578063a9059cbb146105ce578063aa271e1a14610641578063dd62ed3e146106aa576100f3565b806395d89b4114610435578063983b2d56146104c55780639865027514610516578063a048b4a61461052d576100f3565b8063313ce567116100c6578063313ce567146102b957806339509351146102ea57806340c10f191461035d57806370a08231146103d0576100f3565b806306fdde03146100f8578063095ea7b31461018857806318160ddd146101fb57806323b872dd14610226575b600080fd5b34801561010457600080fd5b5061010d61072f565b6040518080602001828103825283818151815260200191508051906020019080838360005b8381101561014d578082015181840152602081019050610132565b50505050905090810190601f16801561017a5780820380516001836020036101000a031916815260200191505b509250505060405180910390f35b34801561019457600080fd5b506101e1600480360360408110156101ab57600080fd5b81019080803573ffffffffffffffffffffffffffffffffffffffff169060200190929190803590602001909291905050506107d1565b604051808215151515815260200191505060405180910390f35b34801561020757600080fd5b506102106107ef565b6040518082815260200191505060405180910390f35b34801561023257600080fd5b5061029f6004803603606081101561024957600080fd5b81019080803573ffffffffffffffffffffffffffffffffffffffff169060200190929190803573ffffffffffffffffffffffffffffffffffffffff169060200190929190803590602001909291905050506107f9565b604051808215151515815260200191505060405180910390f35b3480156102c557600080fd5b506102ce6108d2565b604051808260ff1660ff16815260200191505060405180910390f35b3480156102f657600080fd5b506103436004803603604081101561030d57600080fd5b81019080803573ffffffffffffffffffffffffffffffffffffffff169060200190929190803590602001909291905050506108e9565b604051808215151515815260200191505060405180910390f35b34801561036957600080fd5b506103b66004803603604081101561038057600080fd5b81019080803573ffffffffffffffffffffffffffffffffffffffff1690602001909291908035906020019092919050505061099c565b604051808215151515815260200191505060405180910390f35b3480156103dc57600080fd5b5061041f600480360360208110156103f357600080fd5b81019080803573ffffffffffffffffffffffffffffffffffffffff169060200190929190505050610a19565b6040518082815260200191505060405180910390f35b34801561044157600080fd5b5061044a610a61565b6040518080602001828103825283818151815260200191508051906020019080838360005b8381101561048a57808201518184015260208101905061046f565b50505050905090810190601f1680156104b75780820380516001836020036101000a031916815260200191505b509250505060405180910390f35b3480156104d157600080fd5b50610514600480360360208110156104e857600080fd5b81019080803573ffffffffffffffffffffffffffffffffffffffff169060200190929190505050610b03565b005b34801561052257600080fd5b5061052b610b76565b005b6105596004803603602081101561054357600080fd5b8101908080359060200190929190505050610b88565b005b34801561056757600080fd5b506105b46004803603604081101561057e57600080fd5b81019080803573ffffffffffffffffffffffffffffffffffffffff16906020019092919080359060200190929190505050610c0b565b604051808215151515815260200191505060405180910390f35b3480156105da57600080fd5b50610627600480360360408110156105f157600080fd5b81019080803573ffffffffffffffffffffffffffffffffffffffff16906020019092919080359060200190929190505050610cd8565b604051808215151515815260200191505060405180910390f35b34801561064d57600080fd5b506106906004803603602081101561066457600080fd5b81019080803573ffffffffffffffffffffffffffffffffffffffff169060200190929190505050610cf6565b604051808215151515815260200191505060405180910390f35b3480156106b657600080fd5b50610719600480360360408110156106cd57600080fd5b81019080803573ffffffffffffffffffffffffffffffffffffffff169060200190929190803573ffffffffffffffffffffffffffffffffffffffff169060200190929190505050610d13565b6040518082815260200191505060405180910390f35b606060038054600181600116156101000203166002900480601f0160208091040260200160405190810160405280929190818152602001828054600181600116156101000203166002900480156107c75780601f1061079c576101008083540402835291602001916107c7565b820191906000526020600020905b8154815290600101906020018083116107aa57829003601f168201915b5050505050905090565b60006107e56107de610d9a565b8484610da2565b6001905092915050565b6000600254905090565b6000610806848484610f9d565b6108c784610812610d9a565b6108c28560405180606001604052806028815260200161198c60289139600160008b73ffffffffffffffffffffffffffffffffffffffff1673ffffffffffffffffffffffffffffffffffffffff1681526020019081526020016000206000610878610d9a565b73ffffffffffffffffffffffffffffffffffffffff1673ffffffffffffffffffffffffffffffffffffffff168152602001908152602001600020546112579092919063ffffffff16565b610da2565b600190509392505050565b6000600560009054906101000a900460ff16905090565b60006109926108f6610d9a565b8461098d8560016000610907610d9a565b73ffffffffffffffffffffffffffffffffffffffff1673ffffffffffffffffffffffffffffffffffffffff16815260200190815260200160002060008973ffffffffffffffffffffffffffffffffffffffff1673ffffffffffffffffffffffffffffffffffffffff1681526020019081526020016000205461131990919063ffffffff16565b610da2565b6001905092915050565b60006109ae6109a9610d9a565b610cf6565b1515610a05576040517f08c379a00000000000000000000000000000000000000000000000000000000081526004018080602001828103825260308152602001806118fc6030913960400191505060405180910390fd5b610a0f83836113a3565b6001905092915050565b60008060008373ffffffffffffffffffffffffffffffffffffffff1673ffffffffffffffffffffffffffffffffffffffff168152602001908152602001600020549050919050565b606060048054600181600116156101000203166002900480601f016020809104026020016040519081016040528092919081815260200182805460018160011615610100020316600290048015610af95780601f10610ace57610100808354040283529160200191610af9565b820191906000526020600020905b815481529060010190602001808311610adc57829003601f168201915b5050505050905090565b610b13610b0e610d9a565b610cf6565b1515610b6a576040517f08c379a00000000000000000000000000000000000000000000000000000000081526004018080602001828103825260308152602001806118fc6030913960400191505060405180910390fd5b610b7381611560565b50565b610b86610b81610d9a565b6115ba565b565b80662386f26fc100000234141515610beb576040517f08c379a000000000000000000000000000000000000000000000000000000000815260040180806020018281038252603f81526020018061194d603f913960400191505060405180910390fd5b610bf433611560565b610bfe338261099c565b50610c08336115ba565b50565b6000610cce610c18610d9a565b84610cc985604051806060016040528060258152602001611a1f6025913960016000610c42610d9a565b73ffffffffffffffffffffffffffffffffffffffff1673ffffffffffffffffffffffffffffffffffffffff16815260200190815260200160002060008a73ffffffffffffffffffffffffffffffffffffffff1673ffffffffffffffffffffffffffffffffffffffff168152602001908152602001600020546112579092919063ffffffff16565b610da2565b6001905092915050565b6000610cec610ce5610d9a565b8484610f9d565b6001905092915050565b6000610d0c82600661161490919063ffffffff16565b9050919050565b6000600160008473ffffffffffffffffffffffffffffffffffffffff1673ffffffffffffffffffffffffffffffffffffffff16815260200190815260200160002060008373ffffffffffffffffffffffffffffffffffffffff1673ffffffffffffffffffffffffffffffffffffffff16815260200190815260200160002054905092915050565b600033905090565b600073ffffffffffffffffffffffffffffffffffffffff168373ffffffffffffffffffffffffffffffffffffffff1614151515610e2a576040517f08c379a00000000000000000000000000000000000000000000000000000000081526004018080602001828103825260248152602001806119fb6024913960400191505060405180910390fd5b600073ffffffffffffffffffffffffffffffffffffffff168273ffffffffffffffffffffffffffffffffffffffff1614151515610eb2576040517f08c379a00000000000000000000000000000000000000000000000000000000081526004018080602001828103825260228152602001806118b46022913960400191505060405180910390fd5b80600160008573ffffffffffffffffffffffffffffffffffffffff1673ffffffffffffffffffffffffffffffffffffffff16815260200190815260200160002060008473ffffffffffffffffffffffffffffffffffffffff1673ffffffffffffffffffffffffffffffffffffffff168152602001908152602001600020819055508173ffffffffffffffffffffffffffffffffffffffff168373ffffffffffffffffffffffffffffffffffffffff167f8c5be1e5ebec7d5bd14f71427d1e84f3dd0314c0f7b2291e5b200ac8c7c3b925836040518082815260200191505060405180910390a3505050565b600073ffffffffffffffffffffffffffffffffffffffff168373ffffffffffffffffffffffffffffffffffffffff1614151515611025576040517f08c379a00000000000000000000000000000000000000000000000000000000081526004018080602001828103825260258152602001806119d66025913960400191505060405180910390fd5b600073ffffffffffffffffffffffffffffffffffffffff168273ffffffffffffffffffffffffffffffffffffffff16141515156110ad576040517f08c379a00000000000000000000000000000000000000000000000000000000081526004018080602001828103825260238152602001806118916023913960400191505060405180910390fd5b611118816040518060600160405280602681526020016118d6602691396000808773ffffffffffffffffffffffffffffffffffffffff1673ffffffffffffffffffffffffffffffffffffffff168152602001908152602001600020546112579092919063ffffffff16565b6000808573ffffffffffffffffffffffffffffffffffffffff1673ffffffffffffffffffffffffffffffffffffffff168152602001908152602001600020819055506111ab816000808573ffffffffffffffffffffffffffffffffffffffff1673ffffffffffffffffffffffffffffffffffffffff1681526020019081526020016000205461131990919063ffffffff16565b6000808473ffffffffffffffffffffffffffffffffffffffff1673ffffffffffffffffffffffffffffffffffffffff168152602001908152602001600020819055508173ffffffffffffffffffffffffffffffffffffffff168373ffffffffffffffffffffffffffffffffffffffff167fddf252ad1be2c89b69c2b068fc378daa952ba7f163c4a11628f55a4df523b3ef836040518082815260200191505060405180910390a3505050565b60008383111582901515611306576040517f08c379a00000000000000000000000000000000000000000000000000000000081526004018080602001828103825283818151815260200191508051906020019080838360005b838110156112cb5780820151818401526020810190506112b0565b50505050905090810190601f1680156112f85780820380516001836020036101000a031916815260200191505b509250505060405180910390fd5b5060008385039050809150509392505050565b6000808284019050838110151515611399576040517f08c379a000000000000000000000000000000000000000000000000000000000815260040180806020018281038252601b8152602001807f536166654d6174683a206164646974696f6e206f766572666c6f77000000000081525060200191505060405180910390fd5b8091505092915050565b600073ffffffffffffffffffffffffffffffffffffffff168273ffffffffffffffffffffffffffffffffffffffff1614151515611448576040517f08c379a000000000000000000000000000000000000000000000000000000000815260040180806020018281038252601f8152602001807f45524332303a206d696e7420746f20746865207a65726f20616464726573730081525060200191505060405180910390fd5b61145d8160025461131990919063ffffffff16565b6002819055506114b4816000808573ffffffffffffffffffffffffffffffffffffffff1673ffffffffffffffffffffffffffffffffffffffff1681526020019081526020016000205461131990919063ffffffff16565b6000808473ffffffffffffffffffffffffffffffffffffffff1673ffffffffffffffffffffffffffffffffffffffff168152602001908152602001600020819055508173ffffffffffffffffffffffffffffffffffffffff16600073ffffffffffffffffffffffffffffffffffffffff167fddf252ad1be2c89b69c2b068fc378daa952ba7f163c4a11628f55a4df523b3ef836040518082815260200191505060405180910390a35050565b6115748160066116f490919063ffffffff16565b8073ffffffffffffffffffffffffffffffffffffffff167f6ae172837ea30b801fbfcdd4108aa1d5bf8ff775444fd70256b44e6bf3dfc3f660405160405180910390a250565b6115ce8160066117d190919063ffffffff16565b8073ffffffffffffffffffffffffffffffffffffffff167fe94479a9f7e1952cc78f2d6baab678adc1b772d936c6583def489e524cb6669260405160405180910390a250565b60008073ffffffffffffffffffffffffffffffffffffffff168273ffffffffffffffffffffffffffffffffffffffff161415151561169d576040517f08c379a00000000000000000000000000000000000000000000000000000000081526004018080602001828103825260228152602001806119b46022913960400191505060405180910390fd5b8260000160008373ffffffffffffffffffffffffffffffffffffffff1673ffffffffffffffffffffffffffffffffffffffff16815260200190815260200160002060009054906101000a900460ff16905092915050565b6116fe8282611614565b151515611773576040517f08c379a000000000000000000000000000000000000000000000000000000000815260040180806020018281038252601f8152602001807f526f6c65733a206163636f756e7420616c72656164792068617320726f6c650081525060200191505060405180910390fd5b60018260000160008373ffffffffffffffffffffffffffffffffffffffff1673ffffffffffffffffffffffffffffffffffffffff16815260200190815260200160002060006101000a81548160ff0219169083151502179055505050565b6117db8282611614565b1515611832576040517f08c379a000000000000000000000000000000000000000000000000000000000815260040180806020018281038252602181526020018061192c6021913960400191505060405180910390fd5b60008260000160008373ffffffffffffffffffffffffffffffffffffffff1673ffffffffffffffffffffffffffffffffffffffff16815260200190815260200160002060006101000a81548160ff021916908315150217905550505056fe45524332303a207472616e7366657220746f20746865207a65726f206164647265737345524332303a20617070726f766520746f20746865207a65726f206164647265737345524332303a207472616e7366657220616d6f756e7420657863656564732062616c616e63654d696e746572526f6c653a2063616c6c657220646f6573206e6f74206861766520746865204d696e74657220726f6c65526f6c65733a206163636f756e7420646f6573206e6f74206861766520726f6c65496e636f727265637420616d6f756e74206f66204554482c20796f75206d7573742070617920302e3031204554482070657220416e74456767546f6b656e2e45524332303a207472616e7366657220616d6f756e74206578636565647320616c6c6f77616e6365526f6c65733a206163636f756e7420697320746865207a65726f206164647265737345524332303a207472616e736665722066726f6d20746865207a65726f206164647265737345524332303a20617070726f76652066726f6d20746865207a65726f206164647265737345524332303a2064656372656173656420616c6c6f77616e63652062656c6f77207a65726fa165627a7a72305820ca76b4056dec7f61c268d2a696dc4135b3ef8970ea5fdcaa6b5243f115b2dc2b0029526f6c65733a206163636f756e7420697320746865207a65726f2061646472657373",
  "linkReferences": {},
  "deployedLinkReferences": {}
}