{
  "_format": "hh-sol-artifact-1",
  "contractName": "ERC721Full",
  "sourceName": "@openzeppelin/contracts/token/ERC721/ERC721Full.sol",
  "abi": [
    {
      "constant": true,
      "inputs": [
        {
          "name": "interfaceId",
          "type": "bytes4"
        }
      ],
      "name": "supportsInterface",
      "outputs": [
        {
          "name": "",
          "type": "bool"
        }
      ],
      "payable": false,
      "stateMutability": "view",
      "type": "function"
    },
    {
      "constant": true,
      "inputs": [],
      "name": "name",
      "outputs": [
        {
          "name": "",
          "type": "string"
        }
      ],
      "payable": false,
      "stateMutability": "view",
      "type": "function"
    },
    {
      "constant": true,
      "inputs": [
        {
          "name": "tokenId",
          "type": "uint256"
        }
      ],
      "name": "getApproved",
      "outputs": [
        {
          "name": "",
          "type": "address"
        }
      ],
      "payable": false,
      "stateMutability": "view",
      "type": "function"
    },
    {
      "constant": false,
      "inputs": [
        {
          "name": "to",
          "type": "address"
        },
        {
          "name": "tokenId",
          "type": "uint256"
        }
      ],
      "name": "approve",
      "outputs": [],
      "payable": false,
      "stateMutability": "nonpayable",
      "type": "function"
    },
    {
      "constant": true,
      "inputs": [],
      "name": "totalSupply",
      "outputs": [
        {
          "name": "",
          "type": "uint256"
        }
      ],
      "payable": false,
      "stateMutability": "view",
      "type": "function"
    },
    {
      "constant": false,
      "inputs": [
        {
          "name": "from",
          "type": "address"
        },
        {
          "name": "to",
          "type": "address"
        },
        {
          "name": "tokenId",
          "type": "uint256"
        }
      ],
      "name": "transferFrom",
      "outputs": [],
      "payable": false,
      "stateMutability": "nonpayable",
      "type": "function"
    },
    {
      "constant": true,
      "inputs": [
        {
          "name": "owner",
          "type": "address"
        },
        {
          "name": "index",
          "type": "uint256"
        }
      ],
      "name": "tokenOfOwnerByIndex",
      "outputs": [
        {
          "name": "",
          "type": "uint256"
        }
      ],
      "payable": false,
      "stateMutability": "view",
      "type": "function"
    },
    {
      "constant": false,
      "inputs": [
        {
          "name": "from",
          "type": "address"
        },
        {
          "name": "to",
          "type": "address"
        },
        {
          "name": "tokenId",
          "type": "uint256"
        }
      ],
      "name": "safeTransferFrom",
      "outputs": [],
      "payable": false,
      "stateMutability": "nonpayable",
      "type": "function"
    },
    {
      "constant": true,
      "inputs": [
        {
          "name": "index",
          "type": "uint256"
        }
      ],
      "name": "tokenByIndex",
      "outputs": [
        {
          "name": "",
          "type": "uint256"
        }
      ],
      "payable": false,
      "stateMutability": "view",
      "type": "function"
    },
    {
      "constant": true,
      "inputs": [
        {
          "name": "tokenId",
          "type": "uint256"
        }
      ],
      "name": "ownerOf",
      "outputs": [
        {
          "name": "",
          "type": "address"
        }
      ],
      "payable": false,
      "stateMutability": "view",
      "type": "function"
    },
    {
      "constant": true,
      "inputs": [],
      "name": "baseURI",
      "outputs": [
        {
          "name": "",
          "type": "string"
        }
      ],
      "payable": false,
      "stateMutability": "view",
      "type": "function"
    },
    {
      "constant": true,
      "inputs": [
        {
          "name": "owner",
          "type": "address"
        }
      ],
      "name": "balanceOf",
      "outputs": [
        {
          "name": "",
          "type": "uint256"
        }
      ],
      "payable": false,
      "stateMutability": "view",
      "type": "function"
    },
    {
      "constant": true,
      "inputs": [],
      "name": "symbol",
      "outputs": [
        {
          "name": "",
          "type": "string"
        }
      ],
      "payable": false,
      "stateMutability": "view",
      "type": "function"
    },
    {
      "constant": false,
      "inputs": [
        {
          "name": "to",
          "type": "address"
        },
        {
          "name": "approved",
          "type": "bool"
        }
      ],
      "name": "setApprovalForAll",
      "outputs": [],
      "payable": false,
      "stateMutability": "nonpayable",
      "type": "function"
    },
    {
      "constant": false,
      "inputs": [
        {
          "name": "from",
          "type": "address"
        },
        {
          "name": "to",
          "type": "address"
        },
        {
          "name": "tokenId",
          "type": "uint256"
        },
        {
          "name": "_data",
          "type": "bytes"
        }
      ],
      "name": "safeTransferFrom",
      "outputs": [],
      "payable": false,
      "stateMutability": "nonpayable",
      "type": "function"
    },
    {
      "constant": true,
      "inputs": [
        {
          "name": "tokenId",
          "type": "uint256"
        }
      ],
      "name": "tokenURI",
      "outputs": [
        {
          "name": "",
          "type": "string"
        }
      ],
      "payable": false,
      "stateMutability": "view",
      "type": "function"
    },
    {
      "constant": true,
      "inputs": [
        {
          "name": "owner",
          "type": "address"
        },
        {
          "name": "operator",
          "type": "address"
        }
      ],
      "name": "isApprovedForAll",
      "outputs": [
        {
          "name": "",
          "type": "bool"
        }
      ],
      "payable": false,
      "stateMutability": "view",
      "type": "function"
    },
    {
      "inputs": [
        {
          "name": "name",
          "type": "string"
        },
        {
          "name": "symbol",
          "type": "string"
        }
      ],
      "payable": false,
      "stateMutability": "nonpayable",
      "type": "constructor"
    },
    {
      "anonymous": false,
      "inputs": [
        {
          "indexed": true,
          "name": "from",
          "type": "address"
        },
        {
          "indexed": true,
          "name": "to",
          "type": "address"
        },
        {
          "indexed": true,
          "name": "tokenId",
          "type": "uint256"
        }
      ],
      "name": "Transfer",
      "type": "event"
    },
    {
      "anonymous": false,
      "inputs": [
        {
          "indexed": true,
          "name": "owner",
          "type": "address"
        },
        {
          "indexed": true,
          "name": "approved",
          "type": "address"
        },
        {
          "indexed": true,
          "name": "tokenId",
          "type": "uint256"
        }
      ],
      "name": "Approval",
      "type": "event"
    },
    {
      "anonymous": false,
      "inputs": [
        {
          "indexed": true,
          "name": "owner",
          "type": "address"
        },
        {
          "indexed": true,
          "name": "operator",
          "type": "address"
        },
        {
          "indexed": false,
          "name": "approved",
          "type": "bool"
        }
      ],
      "name": "ApprovalForAll",
      "type": "event"
    }
  ],
  "bytecode": "0x60806040523480156200001157600080fd5b506040516200283638038062002836833981018060405260408110156200003757600080fd5b8101908080516401000000008111156200005057600080fd5b828101905060208101848111156200006757600080fd5b81518560018202830111640100000000821117156200008557600080fd5b50509291906020018051640100000000811115620000a257600080fd5b82810190506020810184811115620000b957600080fd5b8151856001820283011164010000000082111715620000d757600080fd5b50509291905050508181620000f96301ffc9a760e01b6200017d60201b60201c565b620001116380ac58cd60e01b6200017d60201b60201c565b6200012963780e9d6360e01b6200017d60201b60201c565b81600990805190602001906200014192919062000288565b5080600a90805190602001906200015a92919062000288565b5062000173635b5e139f60e01b6200017d60201b60201c565b5050505062000337565b63ffffffff60e01b817bffffffffffffffffffffffffffffffffffffffffffffffffffffffff1916141515156200021c576040517f08c379a000000000000000000000000000000000000000000000000000000000815260040180806020018281038252601c8152602001807f4552433136353a20696e76616c696420696e746572666163652069640000000081525060200191505060405180910390fd5b6001600080837bffffffffffffffffffffffffffffffffffffffffffffffffffffffff19167bffffffffffffffffffffffffffffffffffffffffffffffffffffffff1916815260200190815260200160002060006101000a81548160ff02191690831515021790555050565b828054600181600116156101000203166002900490600052602060002090601f016020900481019282601f10620002cb57805160ff1916838001178555620002fc565b82800160010185558215620002fc579182015b82811115620002fb578251825591602001919060010190620002de565b5b5090506200030b91906200030f565b5090565b6200033491905b808211156200033057600081600090555060010162000316565b5090565b90565b6124ef80620003476000396000f3fe608060405234801561001057600080fd5b506004361061010b5760003560e01c80634f6ccce7116100a257806395d89b411161007157806395d89b411461059b578063a22cb4651461061e578063b88d4fde1461066e578063c87b56dd14610773578063e985e9c51461081a5761010b565b80634f6ccce7146104105780636352211e146104525780636c0360eb146104c057806370a08231146105435761010b565b806318160ddd116100de57806318160ddd146102b457806323b872dd146102d25780632f745c591461034057806342842e0e146103a25761010b565b806301ffc9a71461011057806306fdde0314610175578063081812fc146101f8578063095ea7b314610266575b600080fd5b61015b6004803603602081101561012657600080fd5b8101908080357bffffffffffffffffffffffffffffffffffffffffffffffffffffffff19169060200190929190505050610896565b604051808215151515815260200191505060405180910390f35b61017d6108fd565b6040518080602001828103825283818151815260200191508051906020019080838360005b838110156101bd5780820151818401526020810190506101a2565b50505050905090810190601f1680156101ea5780820380516001836020036101000a031916815260200191505b509250505060405180910390f35b6102246004803603602081101561020e57600080fd5b810190808035906020019092919050505061099f565b604051808273ffffffffffffffffffffffffffffffffffffffff1673ffffffffffffffffffffffffffffffffffffffff16815260200191505060405180910390f35b6102b26004803603604081101561027c57600080fd5b81019080803573ffffffffffffffffffffffffffffffffffffffff16906020019092919080359060200190929190505050610a3c565b005b6102bc610c27565b6040518082815260200191505060405180910390f35b61033e600480360360608110156102e857600080fd5b81019080803573ffffffffffffffffffffffffffffffffffffffff169060200190929190803573ffffffffffffffffffffffffffffffffffffffff16906020019092919080359060200190929190505050610c34565b005b61038c6004803603604081101561035657600080fd5b81019080803573ffffffffffffffffffffffffffffffffffffffff16906020019092919080359060200190929190505050610cac565b6040518082815260200191505060405180910390f35b61040e600480360360608110156103b857600080fd5b81019080803573ffffffffffffffffffffffffffffffffffffffff169060200190929190803573ffffffffffffffffffffffffffffffffffffffff16906020019092919080359060200190929190505050610d6f565b005b61043c6004803603602081101561042657600080fd5b8101908080359060200190929190505050610d8f565b6040518082815260200191505060405180910390f35b61047e6004803603602081101561046857600080fd5b8101908080359060200190929190505050610e13565b604051808273ffffffffffffffffffffffffffffffffffffffff1673ffffffffffffffffffffffffffffffffffffffff16815260200191505060405180910390f35b6104c8610edd565b6040518080602001828103825283818151815260200191508051906020019080838360005b838110156105085780820151818401526020810190506104ed565b50505050905090810190601f1680156105355780820380516001836020036101000a031916815260200191505b509250505060405180910390f35b6105856004803603602081101561055957600080fd5b81019080803573ffffffffffffffffffffffffffffffffffffffff169060200190929190505050610f7f565b6040518082815260200191505060405180910390f35b6105a3611056565b6040518080602001828103825283818151815260200191508051906020019080838360005b838110156105e35780820151818401526020810190506105c8565b50505050905090810190601f1680156106105780820380516001836020036101000a031916815260200191505b509250505060405180910390f35b61066c6004803603604081101561063457600080fd5b81019080803573ffffffffffffffffffffffffffffffffffffffff1690602001909291908035151590602001909291905050506110f8565b005b6107716004803603608081101561068457600080fd5b81019080803573ffffffffffffffffffffffffffffffffffffffff169060200190929190803573ffffffffffffffffffffffffffffffffffffffff16906020019092919080359060200190929190803590602001906401000000008111156106eb57600080fd5b8201836020820111156106fd57600080fd5b8035906020019184600183028401116401000000008311171561071f57600080fd5b91908080601f016020809104026020016040519081016040528093929190818152602001838380828437600081840152601f19601f8201169050808301925050505050505091929192905050506112b2565b005b61079f6004803603602081101561078957600080fd5b810190808035906020019092919050505061132c565b6040518080602001828103825283818151815260200191508051906020019080838360005b838110156107df5780820151818401526020810190506107c4565b50505050905090810190601f16801561080c5780820380516001836020036101000a031916815260200191505b509250505060405180910390f35b61087c6004803603604081101561083057600080fd5b81019080803573ffffffffffffffffffffffffffffffffffffffff169060200190929190803573ffffffffffffffffffffffffffffffffffffffff169060200190929190505050611532565b604051808215151515815260200191505060405180910390f35b6000806000837bffffffffffffffffffffffffffffffffffffffffffffffffffffffff19167bffffffffffffffffffffffffffffffffffffffffffffffffffffffff1916815260200190815260200160002060009054906101000a900460ff169050919050565b606060098054600181600116156101000203166002900480601f0160208091040260200160405190810160405280929190818152602001828054600181600116156101000203166002900480156109955780601f1061096a57610100808354040283529160200191610995565b820191906000526020600020905b81548152906001019060200180831161097857829003601f168201915b5050505050905090565b60006109aa826115c6565b1515610a01576040517f08c379a000000000000000000000000000000000000000000000000000000000815260040180806020018281038252602c8152602001806123c2602c913960400191505060405180910390fd5b6002600083815260200190815260200160002060009054906101000a900473ffffffffffffffffffffffffffffffffffffffff169050919050565b6000610a4782610e13565b90508073ffffffffffffffffffffffffffffffffffffffff168373ffffffffffffffffffffffffffffffffffffffff1614151515610ad0576040517f08c379a00000000000000000000000000000000000000000000000000000000081526004018080602001828103825260218152602001806124466021913960400191505060405180910390fd5b8073ffffffffffffffffffffffffffffffffffffffff16610aef611638565b73ffffffffffffffffffffffffffffffffffffffff161480610b1e5750610b1d81610b18611638565b611532565b5b1515610b75576040517f08c379a00000000000000000000000000000000000000000000000000000000081526004018080602001828103825260388152602001806123376038913960400191505060405180910390fd5b826002600084815260200190815260200160002060006101000a81548173ffffffffffffffffffffffffffffffffffffffff021916908373ffffffffffffffffffffffffffffffffffffffff160217905550818373ffffffffffffffffffffffffffffffffffffffff168273ffffffffffffffffffffffffffffffffffffffff167f8c5be1e5ebec7d5bd14f71427d1e84f3dd0314c0f7b2291e5b200ac8c7c3b92560405160405180910390a4505050565b6000600780549050905090565b610c45610c3f611638565b82611640565b1515610c9c576040517f08c379a00000000000000000000000000000000000000000000000000000000081526004018080602001828103825260318152602001806124676031913960400191505060405180910390fd5b610ca7838383611736565b505050565b6000610cb783610f7f565b82101515610d10576040517f08c379a000000000000000000000000000000000000000000000000000000000815260040180806020018281038252602b81526020018061228a602b913960400191505060405180910390fd5b600560008473ffffffffffffffffffffffffffffffffffffffff1673ffffffffffffffffffffffffffffffffffffffff16815260200190815260200160002082815481101515610d5c57fe5b9060005260206000200154905092915050565b610d8a838383604051806020016040528060008152506112b2565b505050565b6000610d99610c27565b82101515610df2576040517f08c379a000000000000000000000000000000000000000000000000000000000815260040180806020018281038252602c815260200180612498602c913960400191505060405180910390fd5b600782815481101515610e0157fe5b90600052602060002001549050919050565b6000806001600084815260200190815260200160002060009054906101000a900473ffffffffffffffffffffffffffffffffffffffff169050600073ffffffffffffffffffffffffffffffffffffffff168173ffffffffffffffffffffffffffffffffffffffff1614151515610ed4576040517f08c379a00000000000000000000000000000000000000000000000000000000081526004018080602001828103825260298152602001806123996029913960400191505060405180910390fd5b80915050919050565b6060600b8054600181600116156101000203166002900480601f016020809104026020016040519081016040528092919081815260200182805460018160011615610100020316600290048015610f755780601f10610f4a57610100808354040283529160200191610f75565b820191906000526020600020905b815481529060010190602001808311610f5857829003601f168201915b5050505050905090565b60008073ffffffffffffffffffffffffffffffffffffffff168273ffffffffffffffffffffffffffffffffffffffff1614151515611008576040517f08c379a000000000000000000000000000000000000000000000000000000000815260040180806020018281038252602a81526020018061236f602a913960400191505060405180910390fd5b61104f600360008473ffffffffffffffffffffffffffffffffffffffff1673ffffffffffffffffffffffffffffffffffffffff16815260200190815260200160002061175a565b9050919050565b6060600a8054600181600116156101000203166002900480601f0160208091040260200160405190810160405280929190818152602001828054600181600116156101000203166002900480156110ee5780601f106110c3576101008083540402835291602001916110ee565b820191906000526020600020905b8154815290600101906020018083116110d157829003601f168201915b5050505050905090565b611100611638565b73ffffffffffffffffffffffffffffffffffffffff168273ffffffffffffffffffffffffffffffffffffffff16141515156111a3576040517f08c379a00000000000000000000000000000000000000000000000000000000081526004018080602001828103825260198152602001807f4552433732313a20617070726f766520746f2063616c6c65720000000000000081525060200191505060405180910390fd5b80600460006111b0611638565b73ffffffffffffffffffffffffffffffffffffffff1673ffffffffffffffffffffffffffffffffffffffff16815260200190815260200160002060008473ffffffffffffffffffffffffffffffffffffffff1673ffffffffffffffffffffffffffffffffffffffff16815260200190815260200160002060006101000a81548160ff0219169083151502179055508173ffffffffffffffffffffffffffffffffffffffff1661125d611638565b73ffffffffffffffffffffffffffffffffffffffff167f17307eab39ab6107e8899845ad3d59bd9653f200f220920489ca2b5937696c3183604051808215151515815260200191505060405180910390a35050565b6112c36112bd611638565b83611640565b151561131a576040517f08c379a00000000000000000000000000000000000000000000000000000000081526004018080602001828103825260318152602001806124676031913960400191505060405180910390fd5b61132684848484611768565b50505050565b6060611337826115c6565b151561138e576040517f08c379a000000000000000000000000000000000000000000000000000000000815260040180806020018281038252602f815260200180612417602f913960400191505060405180910390fd5b6060600c60008481526020019081526020016000208054600181600116156101000203166002900480601f0160208091040260200160405190810160405280929190818152602001828054600181600116156101000203166002900480156114375780601f1061140c57610100808354040283529160200191611437565b820191906000526020600020905b81548152906001019060200180831161141a57829003601f168201915b50505050509050600081511415611460576040518060200160405280600081525091505061152d565b600b8160405160200180838054600181600116156101000203166002900480156114c15780601f1061149f5761010080835404028352918201916114c1565b820191906000526020600020905b8154815290600101906020018083116114ad575b505082805190602001908083835b6020831015156114f457805182526020820191506020810190506020830392506114cf565b6001836020036101000a038019825116818451168082178552505050505050905001925050506040516020818303038152906040529150505b919050565b6000600460008473ffffffffffffffffffffffffffffffffffffffff1673ffffffffffffffffffffffffffffffffffffffff16815260200190815260200160002060008373ffffffffffffffffffffffffffffffffffffffff1673ffffffffffffffffffffffffffffffffffffffff16815260200190815260200160002060009054906101000a900460ff16905092915050565b6000806001600084815260200190815260200160002060009054906101000a900473ffffffffffffffffffffffffffffffffffffffff169050600073ffffffffffffffffffffffffffffffffffffffff168173ffffffffffffffffffffffffffffffffffffffff161415915050919050565b600033905090565b600061164b826115c6565b15156116a2576040517f08c379a000000000000000000000000000000000000000000000000000000000815260040180806020018281038252602c81526020018061230b602c913960400191505060405180910390fd5b60006116ad83610e13565b90508073ffffffffffffffffffffffffffffffffffffffff168473ffffffffffffffffffffffffffffffffffffffff16148061171c57508373ffffffffffffffffffffffffffffffffffffffff166117048461099f565b73ffffffffffffffffffffffffffffffffffffffff16145b8061172d575061172c8185611532565b5b91505092915050565b6117418383836117dc565b61174b8382611a3b565b6117558282611bdf565b505050565b600081600001549050919050565b611773848484611736565b61177f84848484611ca6565b15156117d6576040517f08c379a00000000000000000000000000000000000000000000000000000000081526004018080602001828103825260328152602001806122b56032913960400191505060405180910390fd5b50505050565b8273ffffffffffffffffffffffffffffffffffffffff166117fc82610e13565b73ffffffffffffffffffffffffffffffffffffffff1614151561186a576040517f08c379a00000000000000000000000000000000000000000000000000000000081526004018080602001828103825260298152602001806123ee6029913960400191505060405180910390fd5b600073ffffffffffffffffffffffffffffffffffffffff168273ffffffffffffffffffffffffffffffffffffffff16141515156118f2576040517f08c379a00000000000000000000000000000000000000000000000000000000081526004018080602001828103825260248152602001806122e76024913960400191505060405180910390fd5b6118fb81611fe8565b611942600360008573ffffffffffffffffffffffffffffffffffffffff1673ffffffffffffffffffffffffffffffffffffffff1681526020019081526020016000206120a8565b611989600360008473ffffffffffffffffffffffffffffffffffffffff1673ffffffffffffffffffffffffffffffffffffffff1681526020019081526020016000206120cb565b816001600083815260200190815260200160002060006101000a81548173ffffffffffffffffffffffffffffffffffffffff021916908373ffffffffffffffffffffffffffffffffffffffff160217905550808273ffffffffffffffffffffffffffffffffffffffff168473ffffffffffffffffffffffffffffffffffffffff167fddf252ad1be2c89b69c2b068fc378daa952ba7f163c4a11628f55a4df523b3ef60405160405180910390a4505050565b6000611a936001600560008673ffffffffffffffffffffffffffffffffffffffff1673ffffffffffffffffffffffffffffffffffffffff168152602001908152602001600020805490506120e190919063ffffffff16565b90506000600660008481526020019081526020016000205490508181141515611b86576000600560008673ffffffffffffffffffffffffffffffffffffffff1673ffffffffffffffffffffffffffffffffffffffff16815260200190815260200160002083815481101515611b0457fe5b9060005260206000200154905080600560008773ffffffffffffffffffffffffffffffffffffffff1673ffffffffffffffffffffffffffffffffffffffff16815260200190815260200160002083815481101515611b5e57fe5b9060005260206000200181905550816006600083815260200190815260200160002081905550505b600560008573ffffffffffffffffffffffffffffffffffffffff1673ffffffffffffffffffffffffffffffffffffffff168152602001908152602001600020805480919060019003611bd89190612238565b5050505050565b600560008373ffffffffffffffffffffffffffffffffffffffff1673ffffffffffffffffffffffffffffffffffffffff168152602001908152602001600020805490506006600083815260200190815260200160002081905550600560008373ffffffffffffffffffffffffffffffffffffffff1673ffffffffffffffffffffffffffffffffffffffff1681526020019081526020016000208190806001815401808255809150509060018203906000526020600020016000909192909190915055505050565b6000611cc78473ffffffffffffffffffffffffffffffffffffffff1661212b565b1515611cd65760019050611fe0565b600060608573ffffffffffffffffffffffffffffffffffffffff168673ffffffffffffffffffffffffffffffffffffffff1663150b7a02905060e01b611d1a611638565b898888604051602401808573ffffffffffffffffffffffffffffffffffffffff1673ffffffffffffffffffffffffffffffffffffffff1681526020018473ffffffffffffffffffffffffffffffffffffffff1673ffffffffffffffffffffffffffffffffffffffff16815260200183815260200180602001828103825283818151815260200191508051906020019080838360005b83811015611dca578082015181840152602081019050611daf565b50505050905090810190601f168015611df75780820380516001836020036101000a031916815260200191505b5095505050505050604051602081830303815290604052907bffffffffffffffffffffffffffffffffffffffffffffffffffffffff19166020820180517bffffffffffffffffffffffffffffffffffffffffffffffffffffffff83818316178352505050506040518082805190602001908083835b602083101515611e915780518252602082019150602081019050602083039250611e6c565b6001836020036101000a0380198251168184511680821785525050505050509050019150506000604051808303816000865af19150503d8060008114611ef3576040519150601f19603f3d011682016040523d82523d6000602084013e611ef8565b606091505b5091509150811515611f6857600081511115611f175780518082602001fd5b6040517f08c379a00000000000000000000000000000000000000000000000000000000081526004018080602001828103825260328152602001806122b56032913960400191505060405180910390fd5b6000818060200190516020811015611f7f57600080fd5b8101908080519060200190929190505050905063150b7a0260e01b7bffffffffffffffffffffffffffffffffffffffffffffffffffffffff1916817bffffffffffffffffffffffffffffffffffffffffffffffffffffffff19161493505050505b949350505050565b600073ffffffffffffffffffffffffffffffffffffffff166002600083815260200190815260200160002060009054906101000a900473ffffffffffffffffffffffffffffffffffffffff1673ffffffffffffffffffffffffffffffffffffffff161415156120a55760006002600083815260200190815260200160002060006101000a81548173ffffffffffffffffffffffffffffffffffffffff021916908373ffffffffffffffffffffffffffffffffffffffff1602179055505b50565b6120c0600182600001546120e190919063ffffffff16565b816000018190555050565b6001816000016000828254019250508190555050565b600061212383836040518060400160405280601e81526020017f536166654d6174683a207375627472616374696f6e206f766572666c6f770000815250612176565b905092915050565b60008060007fc5d2460186f7233c927e7db2dcc703c0e500b653ca82273b7bfad8045d85a47060001b9050833f915080821415801561216d57506000801b8214155b92505050919050565b60008383111582901515612225576040517f08c379a00000000000000000000000000000000000000000000000000000000081526004018080602001828103825283818151815260200191508051906020019080838360005b838110156121ea5780820151818401526020810190506121cf565b50505050905090810190601f1680156122175780820380516001836020036101000a031916815260200191505b509250505060405180910390fd5b5060008385039050809150509392505050565b81548183558181111561225f5781836000526020600020918201910161225e9190612264565b5b505050565b61228691905b8082111561228257600081600090555060010161226a565b5090565b9056fe455243373231456e756d657261626c653a206f776e657220696e646578206f7574206f6620626f756e64734552433732313a207472616e7366657220746f206e6f6e20455243373231526563656976657220696d706c656d656e7465724552433732313a207472616e7366657220746f20746865207a65726f20616464726573734552433732313a206f70657261746f7220717565727920666f72206e6f6e6578697374656e7420746f6b656e4552433732313a20617070726f76652063616c6c6572206973206e6f74206f776e6572206e6f7220617070726f76656420666f7220616c6c4552433732313a2062616c616e636520717565727920666f7220746865207a65726f20616464726573734552433732313a206f776e657220717565727920666f72206e6f6e6578697374656e7420746f6b656e4552433732313a20617070726f76656420717565727920666f72206e6f6e6578697374656e7420746f6b656e4552433732313a207472616e73666572206f6620746f6b656e2074686174206973206e6f74206f776e4552433732314d657461646174613a2055524920717565727920666f72206e6f6e6578697374656e7420746f6b656e4552433732313a20617070726f76616c20746f2063757272656e74206f776e65724552433732313a207472616e736665722063616c6c6572206973206e6f74206f776e6572206e6f7220617070726f766564455243373231456e756d657261626c653a20676c6f62616c20696e646578206f7574206f6620626f756e6473a165627a7a72305820250891177f1eba1e8e7ce77193f2fabc2ae3bcc8198067ea7aa1bed193b3b5160029",
  "linkReferences": {},
  "deployedLinkReferences": {}
}