{
  "_format": "hh-sol-artifact-1",
  "contractName": "ERC721Metadata",
  "sourceName": "@openzeppelin/contracts/token/ERC721/ERC721Metadata.sol",
  "abi": [
    {
      "constant": true,
      "inputs": [
        {
          "name": "interfaceId",
          "type": "bytes4"
        }
      ],
      "name": "supportsInterface",
      "outputs": [
        {
          "name": "",
          "type": "bool"
        }
      ],
      "payable": false,
      "stateMutability": "view",
      "type": "function"
    },
    {
      "constant": true,
      "inputs": [],
      "name": "name",
      "outputs": [
        {
          "name": "",
          "type": "string"
        }
      ],
      "payable": false,
      "stateMutability": "view",
      "type": "function"
    },
    {
      "constant": true,
      "inputs": [
        {
          "name": "tokenId",
          "type": "uint256"
        }
      ],
      "name": "getApproved",
      "outputs": [
        {
          "name": "",
          "type": "address"
        }
      ],
      "payable": false,
      "stateMutability": "view",
      "type": "function"
    },
    {
      "constant": false,
      "inputs": [
        {
          "name": "to",
          "type": "address"
        },
        {
          "name": "tokenId",
          "type": "uint256"
        }
      ],
      "name": "approve",
      "outputs": [],
      "payable": false,
      "stateMutability": "nonpayable",
      "type": "function"
    },
    {
      "constant": false,
      "inputs": [
        {
          "name": "from",
          "type": "address"
        },
        {
          "name": "to",
          "type": "address"
        },
        {
          "name": "tokenId",
          "type": "uint256"
        }
      ],
      "name": "transferFrom",
      "outputs": [],
      "payable": false,
      "stateMutability": "nonpayable",
      "type": "function"
    },
    {
      "constant": false,
      "inputs": [
        {
          "name": "from",
          "type": "address"
        },
        {
          "name": "to",
          "type": "address"
        },
        {
          "name": "tokenId",
          "type": "uint256"
        }
      ],
      "name": "safeTransferFrom",
      "outputs": [],
      "payable": false,
      "stateMutability": "nonpayable",
      "type": "function"
    },
    {
      "constant": true,
      "inputs": [
        {
          "name": "tokenId",
          "type": "uint256"
        }
      ],
      "name": "ownerOf",
      "outputs": [
        {
          "name": "",
          "type": "address"
        }
      ],
      "payable": false,
      "stateMutability": "view",
      "type": "function"
    },
    {
      "constant": true,
      "inputs": [],
      "name": "baseURI",
      "outputs": [
        {
          "name": "",
          "type": "string"
        }
      ],
      "payable": false,
      "stateMutability": "view",
      "type": "function"
    },
    {
      "constant": true,
      "inputs": [
        {
          "name": "owner",
          "type": "address"
        }
      ],
      "name": "balanceOf",
      "outputs": [
        {
          "name": "",
          "type": "uint256"
        }
      ],
      "payable": false,
      "stateMutability": "view",
      "type": "function"
    },
    {
      "constant": true,
      "inputs": [],
      "name": "symbol",
      "outputs": [
        {
          "name": "",
          "type": "string"
        }
      ],
      "payable": false,
      "stateMutability": "view",
      "type": "function"
    },
    {
      "constant": false,
      "inputs": [
        {
          "name": "to",
          "type": "address"
        },
        {
          "name": "approved",
          "type": "bool"
        }
      ],
      "name": "setApprovalForAll",
      "outputs": [],
      "payable": false,
      "stateMutability": "nonpayable",
      "type": "function"
    },
    {
      "constant": false,
      "inputs": [
        {
          "name": "from",
          "type": "address"
        },
        {
          "name": "to",
          "type": "address"
        },
        {
          "name": "tokenId",
          "type": "uint256"
        },
        {
          "name": "_data",
          "type": "bytes"
        }
      ],
      "name": "safeTransferFrom",
      "outputs": [],
      "payable": false,
      "stateMutability": "nonpayable",
      "type": "function"
    },
    {
      "constant": true,
      "inputs": [
        {
          "name": "tokenId",
          "type": "uint256"
        }
      ],
      "name": "tokenURI",
      "outputs": [
        {
          "name": "",
          "type": "string"
        }
      ],
      "payable": false,
      "stateMutability": "view",
      "type": "function"
    },
    {
      "constant": true,
      "inputs": [
        {
          "name": "owner",
          "type": "address"
        },
        {
          "name": "operator",
          "type": "address"
        }
      ],
      "name": "isApprovedForAll",
      "outputs": [
        {
          "name": "",
          "type": "bool"
        }
      ],
      "payable": false,
      "stateMutability": "view",
      "type": "function"
    },
    {
      "inputs": [
        {
          "name": "name",
          "type": "string"
        },
        {
          "name": "symbol",
          "type": "string"
        }
      ],
      "payable": false,
      "stateMutability": "nonpayable",
      "type": "constructor"
    },
    {
      "anonymous": false,
      "inputs": [
        {
          "indexed": true,
          "name": "from",
          "type": "address"
        },
        {
          "indexed": true,
          "name": "to",
          "type": "address"
        },
        {
          "indexed": true,
          "name": "tokenId",
          "type": "uint256"
        }
      ],
      "name": "Transfer",
      "type": "event"
    },
    {
      "anonymous": false,
      "inputs": [
        {
          "indexed": true,
          "name": "owner",
          "type": "address"
        },
        {
          "indexed": true,
          "name": "approved",
          "type": "address"
        },
        {
          "indexed": true,
          "name": "tokenId",
          "type": "uint256"
        }
      ],
      "name": "Approval",
      "type": "event"
    },
    {
      "anonymous": false,
      "inputs": [
        {
          "indexed": true,
          "name": "owner",
          "type": "address"
        },
        {
          "indexed": true,
          "name": "operator",
          "type": "address"
        },
        {
          "indexed": false,
          "name": "approved",
          "type": "bool"
        }
      ],
      "name": "ApprovalForAll",
      "type": "event"
    }
  ],
  "bytecode": "0x60806040523480156200001157600080fd5b50604051620022ac380380620022ac833981018060405260408110156200003757600080fd5b8101908080516401000000008111156200005057600080fd5b828101905060208101848111156200006757600080fd5b81518560018202830111640100000000821117156200008557600080fd5b50509291906020018051640100000000811115620000a257600080fd5b82810190506020810184811115620000b957600080fd5b8151856001820283011164010000000082111715620000d757600080fd5b5050929190505050620000f76301ffc9a760e01b6200016160201b60201c565b6200010f6380ac58cd60e01b6200016160201b60201c565b8160059080519060200190620001279291906200026c565b508060069080519060200190620001409291906200026c565b5062000159635b5e139f60e01b6200016160201b60201c565b50506200031b565b63ffffffff60e01b817bffffffffffffffffffffffffffffffffffffffffffffffffffffffff19161415151562000200576040517f08c379a000000000000000000000000000000000000000000000000000000000815260040180806020018281038252601c8152602001807f4552433136353a20696e76616c696420696e746572666163652069640000000081525060200191505060405180910390fd5b6001600080837bffffffffffffffffffffffffffffffffffffffffffffffffffffffff19167bffffffffffffffffffffffffffffffffffffffffffffffffffffffff1916815260200190815260200160002060006101000a81548160ff02191690831515021790555050565b828054600181600116156101000203166002900490600052602060002090601f016020900481019282601f10620002af57805160ff1916838001178555620002e0565b82800160010185558215620002e0579182015b82811115620002df578251825591602001919060010190620002c2565b5b509050620002ef9190620002f3565b5090565b6200031891905b8082111562000314576000816000905550600101620002fa565b5090565b90565b611f81806200032b6000396000f3fe608060405234801561001057600080fd5b50600436106100ea5760003560e01c80636c0360eb1161008c578063a22cb46511610066578063a22cb4651461053b578063b88d4fde1461058b578063c87b56dd14610690578063e985e9c514610737576100ea565b80636c0360eb146103dd57806370a082311461046057806395d89b41146104b8576100ea565b8063095ea7b3116100c8578063095ea7b31461024557806323b872dd1461029357806342842e0e146103015780636352211e1461036f576100ea565b806301ffc9a7146100ef57806306fdde0314610154578063081812fc146101d7575b600080fd5b61013a6004803603602081101561010557600080fd5b8101908080357bffffffffffffffffffffffffffffffffffffffffffffffffffffffff191690602001909291905050506107b3565b604051808215151515815260200191505060405180910390f35b61015c61081a565b6040518080602001828103825283818151815260200191508051906020019080838360005b8381101561019c578082015181840152602081019050610181565b50505050905090810190601f1680156101c95780820380516001836020036101000a031916815260200191505b509250505060405180910390f35b610203600480360360208110156101ed57600080fd5b81019080803590602001909291905050506108bc565b604051808273ffffffffffffffffffffffffffffffffffffffff1673ffffffffffffffffffffffffffffffffffffffff16815260200191505060405180910390f35b6102916004803603604081101561025b57600080fd5b81019080803573ffffffffffffffffffffffffffffffffffffffff16906020019092919080359060200190929190505050610959565b005b6102ff600480360360608110156102a957600080fd5b81019080803573ffffffffffffffffffffffffffffffffffffffff169060200190929190803573ffffffffffffffffffffffffffffffffffffffff16906020019092919080359060200190929190505050610b44565b005b61036d6004803603606081101561031757600080fd5b81019080803573ffffffffffffffffffffffffffffffffffffffff169060200190929190803573ffffffffffffffffffffffffffffffffffffffff16906020019092919080359060200190929190505050610bbc565b005b61039b6004803603602081101561038557600080fd5b8101908080359060200190929190505050610bdc565b604051808273ffffffffffffffffffffffffffffffffffffffff1673ffffffffffffffffffffffffffffffffffffffff16815260200191505060405180910390f35b6103e5610ca6565b6040518080602001828103825283818151815260200191508051906020019080838360005b8381101561042557808201518184015260208101905061040a565b50505050905090810190601f1680156104525780820380516001836020036101000a031916815260200191505b509250505060405180910390f35b6104a26004803603602081101561047657600080fd5b81019080803573ffffffffffffffffffffffffffffffffffffffff169060200190929190505050610d48565b6040518082815260200191505060405180910390f35b6104c0610e1f565b6040518080602001828103825283818151815260200191508051906020019080838360005b838110156105005780820151818401526020810190506104e5565b50505050905090810190601f16801561052d5780820380516001836020036101000a031916815260200191505b509250505060405180910390f35b6105896004803603604081101561055157600080fd5b81019080803573ffffffffffffffffffffffffffffffffffffffff169060200190929190803515159060200190929190505050610ec1565b005b61068e600480360360808110156105a157600080fd5b81019080803573ffffffffffffffffffffffffffffffffffffffff169060200190929190803573ffffffffffffffffffffffffffffffffffffffff169060200190929190803590602001909291908035906020019064010000000081111561060857600080fd5b82018360208201111561061a57600080fd5b8035906020019184600183028401116401000000008311171561063c57600080fd5b91908080601f016020809104026020016040519081016040528093929190818152602001838380828437600081840152601f19601f82011690508083019250505050505050919291929050505061107b565b005b6106bc600480360360208110156106a657600080fd5b81019080803590602001909291905050506110f5565b6040518080602001828103825283818151815260200191508051906020019080838360005b838110156106fc5780820151818401526020810190506106e1565b50505050905090810190601f1680156107295780820380516001836020036101000a031916815260200191505b509250505060405180910390f35b6107996004803603604081101561074d57600080fd5b81019080803573ffffffffffffffffffffffffffffffffffffffff169060200190929190803573ffffffffffffffffffffffffffffffffffffffff1690602001909291905050506112fb565b604051808215151515815260200191505060405180910390f35b6000806000837bffffffffffffffffffffffffffffffffffffffffffffffffffffffff19167bffffffffffffffffffffffffffffffffffffffffffffffffffffffff1916815260200190815260200160002060009054906101000a900460ff169050919050565b606060058054600181600116156101000203166002900480601f0160208091040260200160405190810160405280929190818152602001828054600181600116156101000203166002900480156108b25780601f10610887576101008083540402835291602001916108b2565b820191906000526020600020905b81548152906001019060200180831161089557829003601f168201915b5050505050905090565b60006108c78261138f565b151561091e576040517f08c379a000000000000000000000000000000000000000000000000000000000815260040180806020018281038252602c815260200180611e80602c913960400191505060405180910390fd5b6002600083815260200190815260200160002060009054906101000a900473ffffffffffffffffffffffffffffffffffffffff169050919050565b600061096482610bdc565b90508073ffffffffffffffffffffffffffffffffffffffff168373ffffffffffffffffffffffffffffffffffffffff16141515156109ed576040517f08c379a0000000000000000000000000000000000000000000000000000000008152600401808060200182810382526021815260200180611f046021913960400191505060405180910390fd5b8073ffffffffffffffffffffffffffffffffffffffff16610a0c611401565b73ffffffffffffffffffffffffffffffffffffffff161480610a3b5750610a3a81610a35611401565b6112fb565b5b1515610a92576040517f08c379a0000000000000000000000000000000000000000000000000000000008152600401808060200182810382526038815260200180611df56038913960400191505060405180910390fd5b826002600084815260200190815260200160002060006101000a81548173ffffffffffffffffffffffffffffffffffffffff021916908373ffffffffffffffffffffffffffffffffffffffff160217905550818373ffffffffffffffffffffffffffffffffffffffff168273ffffffffffffffffffffffffffffffffffffffff167f8c5be1e5ebec7d5bd14f71427d1e84f3dd0314c0f7b2291e5b200ac8c7c3b92560405160405180910390a4505050565b610b55610b4f611401565b82611409565b1515610bac576040517f08c379a0000000000000000000000000000000000000000000000000000000008152600401808060200182810382526031815260200180611f256031913960400191505060405180910390fd5b610bb78383836114ff565b505050565b610bd78383836040518060200160405280600081525061107b565b505050565b6000806001600084815260200190815260200160002060009054906101000a900473ffffffffffffffffffffffffffffffffffffffff169050600073ffffffffffffffffffffffffffffffffffffffff168173ffffffffffffffffffffffffffffffffffffffff1614151515610c9d576040517f08c379a0000000000000000000000000000000000000000000000000000000008152600401808060200182810382526029815260200180611e576029913960400191505060405180910390fd5b80915050919050565b606060078054600181600116156101000203166002900480601f016020809104026020016040519081016040528092919081815260200182805460018160011615610100020316600290048015610d3e5780601f10610d1357610100808354040283529160200191610d3e565b820191906000526020600020905b815481529060010190602001808311610d2157829003601f168201915b5050505050905090565b60008073ffffffffffffffffffffffffffffffffffffffff168273ffffffffffffffffffffffffffffffffffffffff1614151515610dd1576040517f08c379a000000000000000000000000000000000000000000000000000000000815260040180806020018281038252602a815260200180611e2d602a913960400191505060405180910390fd5b610e18600360008473ffffffffffffffffffffffffffffffffffffffff1673ffffffffffffffffffffffffffffffffffffffff16815260200190815260200160002061175e565b9050919050565b606060068054600181600116156101000203166002900480601f016020809104026020016040519081016040528092919081815260200182805460018160011615610100020316600290048015610eb75780601f10610e8c57610100808354040283529160200191610eb7565b820191906000526020600020905b815481529060010190602001808311610e9a57829003601f168201915b5050505050905090565b610ec9611401565b73ffffffffffffffffffffffffffffffffffffffff168273ffffffffffffffffffffffffffffffffffffffff1614151515610f6c576040517f08c379a00000000000000000000000000000000000000000000000000000000081526004018080602001828103825260198152602001807f4552433732313a20617070726f766520746f2063616c6c65720000000000000081525060200191505060405180910390fd5b8060046000610f79611401565b73ffffffffffffffffffffffffffffffffffffffff1673ffffffffffffffffffffffffffffffffffffffff16815260200190815260200160002060008473ffffffffffffffffffffffffffffffffffffffff1673ffffffffffffffffffffffffffffffffffffffff16815260200190815260200160002060006101000a81548160ff0219169083151502179055508173ffffffffffffffffffffffffffffffffffffffff16611026611401565b73ffffffffffffffffffffffffffffffffffffffff167f17307eab39ab6107e8899845ad3d59bd9653f200f220920489ca2b5937696c3183604051808215151515815260200191505060405180910390a35050565b61108c611086611401565b83611409565b15156110e3576040517f08c379a0000000000000000000000000000000000000000000000000000000008152600401808060200182810382526031815260200180611f256031913960400191505060405180910390fd5b6110ef8484848461176c565b50505050565b60606111008261138f565b1515611157576040517f08c379a000000000000000000000000000000000000000000000000000000000815260040180806020018281038252602f815260200180611ed5602f913960400191505060405180910390fd5b6060600860008481526020019081526020016000208054600181600116156101000203166002900480601f0160208091040260200160405190810160405280929190818152602001828054600181600116156101000203166002900480156112005780601f106111d557610100808354040283529160200191611200565b820191906000526020600020905b8154815290600101906020018083116111e357829003601f168201915b5050505050905060008151141561122957604051806020016040528060008152509150506112f6565b600781604051602001808380546001816001161561010002031660029004801561128a5780601f1061126857610100808354040283529182019161128a565b820191906000526020600020905b815481529060010190602001808311611276575b505082805190602001908083835b6020831015156112bd5780518252602082019150602081019050602083039250611298565b6001836020036101000a038019825116818451168082178552505050505050905001925050506040516020818303038152906040529150505b919050565b6000600460008473ffffffffffffffffffffffffffffffffffffffff1673ffffffffffffffffffffffffffffffffffffffff16815260200190815260200160002060008373ffffffffffffffffffffffffffffffffffffffff1673ffffffffffffffffffffffffffffffffffffffff16815260200190815260200160002060009054906101000a900460ff16905092915050565b6000806001600084815260200190815260200160002060009054906101000a900473ffffffffffffffffffffffffffffffffffffffff169050600073ffffffffffffffffffffffffffffffffffffffff168173ffffffffffffffffffffffffffffffffffffffff161415915050919050565b600033905090565b60006114148261138f565b151561146b576040517f08c379a000000000000000000000000000000000000000000000000000000000815260040180806020018281038252602c815260200180611dc9602c913960400191505060405180910390fd5b600061147683610bdc565b90508073ffffffffffffffffffffffffffffffffffffffff168473ffffffffffffffffffffffffffffffffffffffff1614806114e557508373ffffffffffffffffffffffffffffffffffffffff166114cd846108bc565b73ffffffffffffffffffffffffffffffffffffffff16145b806114f657506114f581856112fb565b5b91505092915050565b8273ffffffffffffffffffffffffffffffffffffffff1661151f82610bdc565b73ffffffffffffffffffffffffffffffffffffffff1614151561158d576040517f08c379a0000000000000000000000000000000000000000000000000000000008152600401808060200182810382526029815260200180611eac6029913960400191505060405180910390fd5b600073ffffffffffffffffffffffffffffffffffffffff168273ffffffffffffffffffffffffffffffffffffffff1614151515611615576040517f08c379a0000000000000000000000000000000000000000000000000000000008152600401808060200182810382526024815260200180611da56024913960400191505060405180910390fd5b61161e816117e0565b611665600360008573ffffffffffffffffffffffffffffffffffffffff1673ffffffffffffffffffffffffffffffffffffffff1681526020019081526020016000206118a0565b6116ac600360008473ffffffffffffffffffffffffffffffffffffffff1673ffffffffffffffffffffffffffffffffffffffff1681526020019081526020016000206118c3565b816001600083815260200190815260200160002060006101000a81548173ffffffffffffffffffffffffffffffffffffffff021916908373ffffffffffffffffffffffffffffffffffffffff160217905550808273ffffffffffffffffffffffffffffffffffffffff168473ffffffffffffffffffffffffffffffffffffffff167fddf252ad1be2c89b69c2b068fc378daa952ba7f163c4a11628f55a4df523b3ef60405160405180910390a4505050565b600081600001549050919050565b6117778484846114ff565b611783848484846118d9565b15156117da576040517f08c379a0000000000000000000000000000000000000000000000000000000008152600401808060200182810382526032815260200180611d736032913960400191505060405180910390fd5b50505050565b600073ffffffffffffffffffffffffffffffffffffffff166002600083815260200190815260200160002060009054906101000a900473ffffffffffffffffffffffffffffffffffffffff1673ffffffffffffffffffffffffffffffffffffffff1614151561189d5760006002600083815260200190815260200160002060006101000a81548173ffffffffffffffffffffffffffffffffffffffff021916908373ffffffffffffffffffffffffffffffffffffffff1602179055505b50565b6118b860018260000154611c1b90919063ffffffff16565b816000018190555050565b6001816000016000828254019250508190555050565b60006118fa8473ffffffffffffffffffffffffffffffffffffffff16611c65565b15156119095760019050611c13565b600060608573ffffffffffffffffffffffffffffffffffffffff168673ffffffffffffffffffffffffffffffffffffffff1663150b7a02905060e01b61194d611401565b898888604051602401808573ffffffffffffffffffffffffffffffffffffffff1673ffffffffffffffffffffffffffffffffffffffff1681526020018473ffffffffffffffffffffffffffffffffffffffff1673ffffffffffffffffffffffffffffffffffffffff16815260200183815260200180602001828103825283818151815260200191508051906020019080838360005b838110156119fd5780820151818401526020810190506119e2565b50505050905090810190601f168015611a2a5780820380516001836020036101000a031916815260200191505b5095505050505050604051602081830303815290604052907bffffffffffffffffffffffffffffffffffffffffffffffffffffffff19166020820180517bffffffffffffffffffffffffffffffffffffffffffffffffffffffff83818316178352505050506040518082805190602001908083835b602083101515611ac45780518252602082019150602081019050602083039250611a9f565b6001836020036101000a0380198251168184511680821785525050505050509050019150506000604051808303816000865af19150503d8060008114611b26576040519150601f19603f3d011682016040523d82523d6000602084013e611b2b565b606091505b5091509150811515611b9b57600081511115611b4a5780518082602001fd5b6040517f08c379a0000000000000000000000000000000000000000000000000000000008152600401808060200182810382526032815260200180611d736032913960400191505060405180910390fd5b6000818060200190516020811015611bb257600080fd5b8101908080519060200190929190505050905063150b7a0260e01b7bffffffffffffffffffffffffffffffffffffffffffffffffffffffff1916817bffffffffffffffffffffffffffffffffffffffffffffffffffffffff19161493505050505b949350505050565b6000611c5d83836040518060400160405280601e81526020017f536166654d6174683a207375627472616374696f6e206f766572666c6f770000815250611cb0565b905092915050565b60008060007fc5d2460186f7233c927e7db2dcc703c0e500b653ca82273b7bfad8045d85a47060001b9050833f9150808214158015611ca757506000801b8214155b92505050919050565b60008383111582901515611d5f576040517f08c379a00000000000000000000000000000000000000000000000000000000081526004018080602001828103825283818151815260200191508051906020019080838360005b83811015611d24578082015181840152602081019050611d09565b50505050905090810190601f168015611d515780820380516001836020036101000a031916815260200191505b509250505060405180910390fd5b506000838503905080915050939250505056fe4552433732313a207472616e7366657220746f206e6f6e20455243373231526563656976657220696d706c656d656e7465724552433732313a207472616e7366657220746f20746865207a65726f20616464726573734552433732313a206f70657261746f7220717565727920666f72206e6f6e6578697374656e7420746f6b656e4552433732313a20617070726f76652063616c6c6572206973206e6f74206f776e6572206e6f7220617070726f76656420666f7220616c6c4552433732313a2062616c616e636520717565727920666f7220746865207a65726f20616464726573734552433732313a206f776e657220717565727920666f72206e6f6e6578697374656e7420746f6b656e4552433732313a20617070726f76656420717565727920666f72206e6f6e6578697374656e7420746f6b656e4552433732313a207472616e73666572206f6620746f6b656e2074686174206973206e6f74206f776e4552433732314d657461646174613a2055524920717565727920666f72206e6f6e6578697374656e7420746f6b656e4552433732313a20617070726f76616c20746f2063757272656e74206f776e65724552433732313a207472616e736665722063616c6c6572206973206e6f74206f776e6572206e6f7220617070726f766564a165627a7a72305820fe91dac02c9ab3a5759a0cc79d9fae946b42aeb15c6bd2bd05ddbe2a7adb1a960029",
  "linkReferences": {},
  "deployedLinkReferences": {}
}